{
  "_format": "hh-sol-artifact-1",
  "contractName": "Store",
  "sourceName": "contracts/Store.sol",
  "abi": [
    {
      "inputs": [],
      "name": "getUserFiles",
      "outputs": [
        {
          "components": [
            {
              "internalType": "string",
              "name": "filename",
              "type": "string"
            },
            {
              "internalType": "string",
              "name": "cid",
              "type": "string"
            }
          ],
          "internalType": "struct Store.File[]",
          "name": "",
          "type": "tuple[]"
        }
      ],
      "stateMutability": "view",
      "type": "function"
    },
    {
      "inputs": [
        {
          "internalType": "string",
          "name": "_filename",
          "type": "string"
        },
        {
          "internalType": "string",
          "name": "_cid",
          "type": "string"
        }
      ],
      "name": "storeFile",
      "outputs": [],
      "stateMutability": "nonpayable",
      "type": "function"
    },
    {
      "inputs": [
        {
          "internalType": "address",
          "name": "",
          "type": "address"
        },
        {
          "internalType": "uint256",
          "name": "",
          "type": "uint256"
        }
      ],
      "name": "userFiles",
      "outputs": [
        {
          "internalType": "string",
          "name": "filename",
          "type": "string"
        },
        {
          "internalType": "string",
          "name": "cid",
          "type": "string"
        }
      ],
      "stateMutability": "view",
      "type": "function"
    }
  ],
  "bytecode": "0x608060405234801561001057600080fd5b50610c57806100206000396000f3fe608060405234801561001057600080fd5b50600436106100415760003560e01c8063119429891461004657806320de107014610064578063718f38a614610080575b600080fd5b61004e6100b1565b60405161005b919061060b565b60405180910390f35b61007e60048036038101906100799190610776565b610270565b005b61009a60048036038101906100959190610882565b610324565b6040516100a892919061090c565b60405180910390f35b60606000803373ffffffffffffffffffffffffffffffffffffffff1673ffffffffffffffffffffffffffffffffffffffff168152602001908152602001600020805480602002602001604051908101604052809291908181526020016000905b82821015610267578382906000526020600020906002020160405180604001604052908160008201805461014490610972565b80601f016020809104026020016040519081016040528092919081815260200182805461017090610972565b80156101bd5780601f10610192576101008083540402835291602001916101bd565b820191906000526020600020905b8154815290600101906020018083116101a057829003601f168201915b505050505081526020016001820180546101d690610972565b80601f016020809104026020016040519081016040528092919081815260200182805461020290610972565b801561024f5780601f106102245761010080835404028352916020019161024f565b820191906000526020600020905b81548152906001019060200180831161023257829003601f168201915b50505050508152505081526020019060010190610111565b50505050905090565b60008060003373ffffffffffffffffffffffffffffffffffffffff1673ffffffffffffffffffffffffffffffffffffffff168152602001908152602001600020905080604051806040016040528085815260200184815250908060018154018082558091505060019003906000526020600020906002020160009091909190915060008201518160000190816103069190610b4f565b50602082015181600101908161031c9190610b4f565b505050505050565b6000602052816000526040600020818154811061034057600080fd5b90600052602060002090600202016000915091505080600001805461036490610972565b80601f016020809104026020016040519081016040528092919081815260200182805461039090610972565b80156103dd5780601f106103b2576101008083540402835291602001916103dd565b820191906000526020600020905b8154815290600101906020018083116103c057829003601f168201915b5050505050908060010180546103f290610972565b80601f016020809104026020016040519081016040528092919081815260200182805461041e90610972565b801561046b5780601f106104405761010080835404028352916020019161046b565b820191906000526020600020905b81548152906001019060200180831161044e57829003601f168201915b5050505050905082565b600081519050919050565b600082825260208201905092915050565b6000819050602082019050919050565b600081519050919050565b600082825260208201905092915050565b60005b838110156104db5780820151818401526020810190506104c0565b60008484015250505050565b6000601f19601f8301169050919050565b6000610503826104a1565b61050d81856104ac565b935061051d8185602086016104bd565b610526816104e7565b840191505092915050565b6000604083016000830151848203600086015261054e82826104f8565b9150506020830151848203602086015261056882826104f8565b9150508091505092915050565b60006105818383610531565b905092915050565b6000602082019050919050565b60006105a182610475565b6105ab8185610480565b9350836020820285016105bd85610491565b8060005b858110156105f957848403895281516105da8582610575565b94506105e583610589565b925060208a019950506001810190506105c1565b50829750879550505050505092915050565b600060208201905081810360008301526106258184610596565b905092915050565b6000604051905090565b600080fd5b600080fd5b600080fd5b600080fd5b7f4e487b7100000000000000000000000000000000000000000000000000000000600052604160045260246000fd5b610683826104e7565b810181811067ffffffffffffffff821117156106a2576106a161064b565b5b80604052505050565b60006106b561062d565b90506106c1828261067a565b919050565b600067ffffffffffffffff8211156106e1576106e061064b565b5b6106ea826104e7565b9050602081019050919050565b82818337600083830152505050565b6000610719610714846106c6565b6106ab565b90508281526020810184848401111561073557610734610646565b5b6107408482856106f7565b509392505050565b600082601f83011261075d5761075c610641565b5b813561076d848260208601610706565b91505092915050565b6000806040838503121561078d5761078c610637565b5b600083013567ffffffffffffffff8111156107ab576107aa61063c565b5b6107b785828601610748565b925050602083013567ffffffffffffffff8111156107d8576107d761063c565b5b6107e485828601610748565b9150509250929050565b600073ffffffffffffffffffffffffffffffffffffffff82169050919050565b6000610819826107ee565b9050919050565b6108298161080e565b811461083457600080fd5b50565b60008135905061084681610820565b92915050565b6000819050919050565b61085f8161084c565b811461086a57600080fd5b50565b60008135905061087c81610856565b92915050565b6000806040838503121561089957610898610637565b5b60006108a785828601610837565b92505060206108b88582860161086d565b9150509250929050565b600082825260208201905092915050565b60006108de826104a1565b6108e881856108c2565b93506108f88185602086016104bd565b610901816104e7565b840191505092915050565b6000604082019050818103600083015261092681856108d3565b9050818103602083015261093a81846108d3565b90509392505050565b7f4e487b7100000000000000000000000000000000000000000000000000000000600052602260045260246000fd5b6000600282049050600182168061098a57607f821691505b60208210810361099d5761099c610943565b5b50919050565b60008190508160005260206000209050919050565b60006020601f8301049050919050565b600082821b905092915050565b600060088302610a057fffffffffffffffffffffffffffffffffffffffffffffffffffffffffffffffff826109c8565b610a0f86836109c8565b95508019841693508086168417925050509392505050565b6000819050919050565b6000610a4c610a47610a428461084c565b610a27565b61084c565b9050919050565b6000819050919050565b610a6683610a31565b610a7a610a7282610a53565b8484546109d5565b825550505050565b600090565b610a8f610a82565b610a9a818484610a5d565b505050565b5b81811015610abe57610ab3600082610a87565b600181019050610aa0565b5050565b601f821115610b0357610ad4816109a3565b610add846109b8565b81016020851015610aec578190505b610b00610af8856109b8565b830182610a9f565b50505b505050565b600082821c905092915050565b6000610b2660001984600802610b08565b1980831691505092915050565b6000610b3f8383610b15565b9150826002028217905092915050565b610b58826104a1565b67ffffffffffffffff811115610b7157610b7061064b565b5b610b7b8254610972565b610b86828285610ac2565b600060209050601f831160018114610bb95760008415610ba7578287015190505b610bb18582610b33565b865550610c19565b601f198416610bc7866109a3565b60005b82811015610bef57848901518255600182019150602085019450602081019050610bca565b86831015610c0c5784890151610c08601f891682610b15565b8355505b6001600288020188555050505b50505050505056fea264697066735822122024abef2a2d96a214e93bc1db002d3c013083e69e1bd4fc79f5bd3e1efcfe842a64736f6c63430008180033",
  "linkReferences": {},
  "deployedLinkReferences": {}
}