{
  "_format": "hh-sol-artifact-1",
  "contractName": "Store",
  "sourceName": "contracts/Store.sol",
  "abi": [
    {
      "inputs": [
        {
          "internalType": "uint256",
          "name": "_index",
          "type": "uint256"
        }
      ],
      "name": "getFile",
      "outputs": [
        {
          "internalType": "string",
          "name": "",
          "type": "string"
        },
        {
          "internalType": "string",
          "name": "",
          "type": "string"
        }
      ],
      "stateMutability": "view",
      "type": "function"
    },
    {
      "inputs": [],
      "name": "getUserFiles",
      "outputs": [
        {
          "components": [
            {
              "internalType": "string",
              "name": "filename",
              "type": "string"
            },
            {
              "internalType": "string",
              "name": "cid",
              "type": "string"
            }
          ],
          "internalType": "struct Store.File[]",
          "name": "",
          "type": "tuple[]"
        }
      ],
      "stateMutability": "view",
      "type": "function"
    },
    {
      "inputs": [
        {
          "internalType": "string",
          "name": "_filename",
          "type": "string"
        },
        {
          "internalType": "string",
          "name": "_cid",
          "type": "string"
        }
      ],
      "name": "storeFile",
      "outputs": [],
      "stateMutability": "nonpayable",
      "type": "function"
    },
    {
      "inputs": [
        {
          "internalType": "address",
          "name": "",
          "type": "address"
        },
        {
          "internalType": "uint256",
          "name": "",
          "type": "uint256"
        }
      ],
      "name": "userFiles",
      "outputs": [
        {
          "internalType": "string",
          "name": "filename",
          "type": "string"
        },
        {
          "internalType": "string",
          "name": "cid",
          "type": "string"
        }
      ],
      "stateMutability": "view",
      "type": "function"
    }
  ],
  "bytecode": "0x608060405234801561001057600080fd5b50610fa5806100206000396000f3fe608060405234801561001057600080fd5b506004361061004c5760003560e01c8063119429891461005157806320de10701461006f5780632bfda3131461008b578063718f38a6146100bc575b600080fd5b6100596100ed565b6040516100669190610891565b60405180910390f35b610089600480360381019061008491906109fc565b6102ac565b005b6100a560048036038101906100a09190610aaa565b610360565b6040516100b3929190610b21565b60405180910390f35b6100d660048036038101906100d19190610bb6565b6105aa565b6040516100e4929190610b21565b60405180910390f35b60606000803373ffffffffffffffffffffffffffffffffffffffff1673ffffffffffffffffffffffffffffffffffffffff168152602001908152602001600020805480602002602001604051908101604052809291908181526020016000905b828210156102a3578382906000526020600020906002020160405180604001604052908160008201805461018090610c25565b80601f01602080910402602001604051908101604052809291908181526020018280546101ac90610c25565b80156101f95780601f106101ce576101008083540402835291602001916101f9565b820191906000526020600020905b8154815290600101906020018083116101dc57829003601f168201915b5050505050815260200160018201805461021290610c25565b80601f016020809104026020016040519081016040528092919081815260200182805461023e90610c25565b801561028b5780601f106102605761010080835404028352916020019161028b565b820191906000526020600020905b81548152906001019060200180831161026e57829003601f168201915b5050505050815250508152602001906001019061014d565b50505050905090565b60008060003373ffffffffffffffffffffffffffffffffffffffff1673ffffffffffffffffffffffffffffffffffffffff168152602001908152602001600020905080604051806040016040528085815260200184815250908060018154018082558091505060019003906000526020600020906002020160009091909190915060008201518160000190816103429190610e02565b5060208201518160010190816103589190610e02565b505050505050565b60608060008060003373ffffffffffffffffffffffffffffffffffffffff1673ffffffffffffffffffffffffffffffffffffffff168152602001908152602001600020805480602002602001604051908101604052809291908181526020016000905b8282101561051957838290600052602060002090600202016040518060400160405290816000820180546103f690610c25565b80601f016020809104026020016040519081016040528092919081815260200182805461042290610c25565b801561046f5780601f106104445761010080835404028352916020019161046f565b820191906000526020600020905b81548152906001019060200180831161045257829003601f168201915b5050505050815260200160018201805461048890610c25565b80601f01602080910402602001604051908101604052809291908181526020018280546104b490610c25565b80156105015780601f106104d657610100808354040283529160200191610501565b820191906000526020600020905b8154815290600101906020018083116104e457829003601f168201915b505050505081525050815260200190600101906103c3565b50505050905080518410610562576040517f08c379a000000000000000000000000000000000000000000000000000000000815260040161055990610f20565b60405180910390fd5b80848151811061057557610574610f40565b5b60200260200101516000015181858151811061059457610593610f40565b5b6020026020010151602001519250925050915091565b600060205281600052604060002081815481106105c657600080fd5b9060005260206000209060020201600091509150508060000180546105ea90610c25565b80601f016020809104026020016040519081016040528092919081815260200182805461061690610c25565b80156106635780601f1061063857610100808354040283529160200191610663565b820191906000526020600020905b81548152906001019060200180831161064657829003601f168201915b50505050509080600101805461067890610c25565b80601f01602080910402602001604051908101604052809291908181526020018280546106a490610c25565b80156106f15780601f106106c6576101008083540402835291602001916106f1565b820191906000526020600020905b8154815290600101906020018083116106d457829003601f168201915b5050505050905082565b600081519050919050565b600082825260208201905092915050565b6000819050602082019050919050565b600081519050919050565b600082825260208201905092915050565b60005b83811015610761578082015181840152602081019050610746565b60008484015250505050565b6000601f19601f8301169050919050565b600061078982610727565b6107938185610732565b93506107a3818560208601610743565b6107ac8161076d565b840191505092915050565b600060408301600083015184820360008601526107d4828261077e565b915050602083015184820360208601526107ee828261077e565b9150508091505092915050565b600061080783836107b7565b905092915050565b6000602082019050919050565b6000610827826106fb565b6108318185610706565b93508360208202850161084385610717565b8060005b8581101561087f578484038952815161086085826107fb565b945061086b8361080f565b925060208a01995050600181019050610847565b50829750879550505050505092915050565b600060208201905081810360008301526108ab818461081c565b905092915050565b6000604051905090565b600080fd5b600080fd5b600080fd5b600080fd5b7f4e487b7100000000000000000000000000000000000000000000000000000000600052604160045260246000fd5b6109098261076d565b810181811067ffffffffffffffff82111715610928576109276108d1565b5b80604052505050565b600061093b6108b3565b90506109478282610900565b919050565b600067ffffffffffffffff821115610967576109666108d1565b5b6109708261076d565b9050602081019050919050565b82818337600083830152505050565b600061099f61099a8461094c565b610931565b9050828152602081018484840111156109bb576109ba6108cc565b5b6109c684828561097d565b509392505050565b600082601f8301126109e3576109e26108c7565b5b81356109f384826020860161098c565b91505092915050565b60008060408385031215610a1357610a126108bd565b5b600083013567ffffffffffffffff811115610a3157610a306108c2565b5b610a3d858286016109ce565b925050602083013567ffffffffffffffff811115610a5e57610a5d6108c2565b5b610a6a858286016109ce565b9150509250929050565b6000819050919050565b610a8781610a74565b8114610a9257600080fd5b50565b600081359050610aa481610a7e565b92915050565b600060208284031215610ac057610abf6108bd565b5b6000610ace84828501610a95565b91505092915050565b600082825260208201905092915050565b6000610af382610727565b610afd8185610ad7565b9350610b0d818560208601610743565b610b168161076d565b840191505092915050565b60006040820190508181036000830152610b3b8185610ae8565b90508181036020830152610b4f8184610ae8565b90509392505050565b600073ffffffffffffffffffffffffffffffffffffffff82169050919050565b6000610b8382610b58565b9050919050565b610b9381610b78565b8114610b9e57600080fd5b50565b600081359050610bb081610b8a565b92915050565b60008060408385031215610bcd57610bcc6108bd565b5b6000610bdb85828601610ba1565b9250506020610bec85828601610a95565b9150509250929050565b7f4e487b7100000000000000000000000000000000000000000000000000000000600052602260045260246000fd5b60006002820490506001821680610c3d57607f821691505b602082108103610c5057610c4f610bf6565b5b50919050565b60008190508160005260206000209050919050565b60006020601f8301049050919050565b600082821b905092915050565b600060088302610cb87fffffffffffffffffffffffffffffffffffffffffffffffffffffffffffffffff82610c7b565b610cc28683610c7b565b95508019841693508086168417925050509392505050565b6000819050919050565b6000610cff610cfa610cf584610a74565b610cda565b610a74565b9050919050565b6000819050919050565b610d1983610ce4565b610d2d610d2582610d06565b848454610c88565b825550505050565b600090565b610d42610d35565b610d4d818484610d10565b505050565b5b81811015610d7157610d66600082610d3a565b600181019050610d53565b5050565b601f821115610db657610d8781610c56565b610d9084610c6b565b81016020851015610d9f578190505b610db3610dab85610c6b565b830182610d52565b50505b505050565b600082821c905092915050565b6000610dd960001984600802610dbb565b1980831691505092915050565b6000610df28383610dc8565b9150826002028217905092915050565b610e0b82610727565b67ffffffffffffffff811115610e2457610e236108d1565b5b610e2e8254610c25565b610e39828285610d75565b600060209050601f831160018114610e6c5760008415610e5a578287015190505b610e648582610de6565b865550610ecc565b601f198416610e7a86610c56565b60005b82811015610ea257848901518255600182019150602085019450602081019050610e7d565b86831015610ebf5784890151610ebb601f891682610dc8565b8355505b6001600288020188555050505b505050505050565b7f496e646578206f7574206f6620626f756e647300000000000000000000000000600082015250565b6000610f0a601383610ad7565b9150610f1582610ed4565b602082019050919050565b60006020820190508181036000830152610f3981610efd565b9050919050565b7f4e487b7100000000000000000000000000000000000000000000000000000000600052603260045260246000fdfea264697066735822122005a0fa8af3c6141267beb9ee88829ff55a8fca8020034e15926e81496a9e326e64736f6c63430008180033",
  "linkReferences": {},
  "deployedLinkReferences": {}
}