{
  "_format": "hh-sol-artifact-1",
  "contractName": "Store",
  "sourceName": "contracts/Store.sol",
  "abi": [
    {
      "inputs": [
        {
          "internalType": "uint256",
          "name": "",
          "type": "uint256"
        }
      ],
      "name": "files",
      "outputs": [
        {
          "internalType": "string",
          "name": "filename",
          "type": "string"
        },
        {
          "internalType": "string",
          "name": "cid",
          "type": "string"
        }
      ],
      "stateMutability": "view",
      "type": "function"
    },
    {
      "inputs": [],
      "name": "getAllFiles",
      "outputs": [
        {
          "components": [
            {
              "internalType": "string",
              "name": "filename",
              "type": "string"
            },
            {
              "internalType": "string",
              "name": "cid",
              "type": "string"
            }
          ],
          "internalType": "struct Store.File[]",
          "name": "",
          "type": "tuple[]"
        }
      ],
      "stateMutability": "view",
      "type": "function"
    },
    {
      "inputs": [
        {
          "internalType": "uint256",
          "name": "_index",
          "type": "uint256"
        }
      ],
      "name": "getFile",
      "outputs": [
        {
          "internalType": "string",
          "name": "",
          "type": "string"
        },
        {
          "internalType": "string",
          "name": "",
          "type": "string"
        }
      ],
      "stateMutability": "view",
      "type": "function"
    },
    {
      "inputs": [
        {
          "internalType": "string",
          "name": "_filename",
          "type": "string"
        },
        {
          "internalType": "string",
          "name": "_cid",
          "type": "string"
        }
      ],
      "name": "storeFile",
      "outputs": [
        {
          "internalType": "uint256",
          "name": "",
          "type": "uint256"
        }
      ],
      "stateMutability": "nonpayable",
      "type": "function"
    }
  ],
  "bytecode": "0x608060405234801561001057600080fd5b50610e36806100206000396000f3fe608060405234801561001057600080fd5b506004361061004c5760003560e01c806320de1070146100515780632bfda31314610081578063f4c714b4146100b2578063ff24b5d5146100e3575b600080fd5b61006b6004803603810190610066919061075a565b610101565b60405161007891906107eb565b60405180910390f35b61009b60048036038101906100969190610832565b610184565b6040516100a99291906108de565b60405180910390f35b6100cc60048036038101906100c79190610832565b610339565b6040516100da9291906108de565b60405180910390f35b6100eb61047d565b6040516100f89190610a65565b60405180910390f35b60008060008054905090506000604051806040016040528086815260200185815250908060018154018082558091505060019003906000526020600020906002020160009091909190915060008201518160000190816101619190610c93565b5060208201518160010190816101779190610c93565b5050508091505092915050565b60608060008054905083106101ce576040517f08c379a00000000000000000000000000000000000000000000000000000000081526004016101c590610db1565b60405180910390fd5b600083815481106101e2576101e1610dd1565b5b90600052602060002090600202016000016000848154811061020757610206610dd1565b5b906000526020600020906002020160010181805461022490610ab6565b80601f016020809104026020016040519081016040528092919081815260200182805461025090610ab6565b801561029d5780601f106102725761010080835404028352916020019161029d565b820191906000526020600020905b81548152906001019060200180831161028057829003601f168201915b505050505091508080546102b090610ab6565b80601f01602080910402602001604051908101604052809291908181526020018280546102dc90610ab6565b80156103295780601f106102fe57610100808354040283529160200191610329565b820191906000526020600020905b81548152906001019060200180831161030c57829003601f168201915b5050505050905091509150915091565b6000818154811061034957600080fd5b906000526020600020906002020160009150905080600001805461036c90610ab6565b80601f016020809104026020016040519081016040528092919081815260200182805461039890610ab6565b80156103e55780601f106103ba576101008083540402835291602001916103e5565b820191906000526020600020905b8154815290600101906020018083116103c857829003601f168201915b5050505050908060010180546103fa90610ab6565b80601f016020809104026020016040519081016040528092919081815260200182805461042690610ab6565b80156104735780601f1061044857610100808354040283529160200191610473565b820191906000526020600020905b81548152906001019060200180831161045657829003601f168201915b5050505050905082565b60606000805480602002602001604051908101604052809291908181526020016000905b828210156105f757838290600052602060002090600202016040518060400160405290816000820180546104d490610ab6565b80601f016020809104026020016040519081016040528092919081815260200182805461050090610ab6565b801561054d5780601f106105225761010080835404028352916020019161054d565b820191906000526020600020905b81548152906001019060200180831161053057829003601f168201915b5050505050815260200160018201805461056690610ab6565b80601f016020809104026020016040519081016040528092919081815260200182805461059290610ab6565b80156105df5780601f106105b4576101008083540402835291602001916105df565b820191906000526020600020905b8154815290600101906020018083116105c257829003601f168201915b505050505081525050815260200190600101906104a1565b50505050905090565b6000604051905090565b600080fd5b600080fd5b600080fd5b600080fd5b6000601f19601f8301169050919050565b7f4e487b7100000000000000000000000000000000000000000000000000000000600052604160045260246000fd5b6106678261061e565b810181811067ffffffffffffffff821117156106865761068561062f565b5b80604052505050565b6000610699610600565b90506106a5828261065e565b919050565b600067ffffffffffffffff8211156106c5576106c461062f565b5b6106ce8261061e565b9050602081019050919050565b82818337600083830152505050565b60006106fd6106f8846106aa565b61068f565b90508281526020810184848401111561071957610718610619565b5b6107248482856106db565b509392505050565b600082601f83011261074157610740610614565b5b81356107518482602086016106ea565b91505092915050565b600080604083850312156107715761077061060a565b5b600083013567ffffffffffffffff81111561078f5761078e61060f565b5b61079b8582860161072c565b925050602083013567ffffffffffffffff8111156107bc576107bb61060f565b5b6107c88582860161072c565b9150509250929050565b6000819050919050565b6107e5816107d2565b82525050565b600060208201905061080060008301846107dc565b92915050565b61080f816107d2565b811461081a57600080fd5b50565b60008135905061082c81610806565b92915050565b6000602082840312156108485761084761060a565b5b60006108568482850161081d565b91505092915050565b600081519050919050565b600082825260208201905092915050565b60005b8381101561089957808201518184015260208101905061087e565b60008484015250505050565b60006108b08261085f565b6108ba818561086a565b93506108ca81856020860161087b565b6108d38161061e565b840191505092915050565b600060408201905081810360008301526108f881856108a5565b9050818103602083015261090c81846108a5565b90509392505050565b600081519050919050565b600082825260208201905092915050565b6000819050602082019050919050565b600082825260208201905092915050565b600061095d8261085f565b6109678185610941565b935061097781856020860161087b565b6109808161061e565b840191505092915050565b600060408301600083015184820360008601526109a88282610952565b915050602083015184820360208601526109c28282610952565b9150508091505092915050565b60006109db838361098b565b905092915050565b6000602082019050919050565b60006109fb82610915565b610a058185610920565b935083602082028501610a1785610931565b8060005b85811015610a535784840389528151610a3485826109cf565b9450610a3f836109e3565b925060208a01995050600181019050610a1b565b50829750879550505050505092915050565b60006020820190508181036000830152610a7f81846109f0565b905092915050565b7f4e487b7100000000000000000000000000000000000000000000000000000000600052602260045260246000fd5b60006002820490506001821680610ace57607f821691505b602082108103610ae157610ae0610a87565b5b50919050565b60008190508160005260206000209050919050565b60006020601f8301049050919050565b600082821b905092915050565b600060088302610b497fffffffffffffffffffffffffffffffffffffffffffffffffffffffffffffffff82610b0c565b610b538683610b0c565b95508019841693508086168417925050509392505050565b6000819050919050565b6000610b90610b8b610b86846107d2565b610b6b565b6107d2565b9050919050565b6000819050919050565b610baa83610b75565b610bbe610bb682610b97565b848454610b19565b825550505050565b600090565b610bd3610bc6565b610bde818484610ba1565b505050565b5b81811015610c0257610bf7600082610bcb565b600181019050610be4565b5050565b601f821115610c4757610c1881610ae7565b610c2184610afc565b81016020851015610c30578190505b610c44610c3c85610afc565b830182610be3565b50505b505050565b600082821c905092915050565b6000610c6a60001984600802610c4c565b1980831691505092915050565b6000610c838383610c59565b9150826002028217905092915050565b610c9c8261085f565b67ffffffffffffffff811115610cb557610cb461062f565b5b610cbf8254610ab6565b610cca828285610c06565b600060209050601f831160018114610cfd5760008415610ceb578287015190505b610cf58582610c77565b865550610d5d565b601f198416610d0b86610ae7565b60005b82811015610d3357848901518255600182019150602085019450602081019050610d0e565b86831015610d505784890151610d4c601f891682610c59565b8355505b6001600288020188555050505b505050505050565b7f496e646578206f7574206f6620626f756e647300000000000000000000000000600082015250565b6000610d9b60138361086a565b9150610da682610d65565b602082019050919050565b60006020820190508181036000830152610dca81610d8e565b9050919050565b7f4e487b7100000000000000000000000000000000000000000000000000000000600052603260045260246000fdfea26469706673582212209f8de5118069d1c9694e6c36c7a6050191cf17b88558f5e52b204bc04cd6144664736f6c63430008180033",
  "linkReferences": {},
  "deployedLinkReferences": {}
}